{
	"data": {
		"bytecode": {
			"linkReferences": {},
			"object": "60c060405234801562000010575f80fd5b506040516200180e3803806200180e83398181016040528101906200003691906200010b565b8173ffffffffffffffffffffffffffffffffffffffff1660808173ffffffffffffffffffffffffffffffffffffffff16815250508073ffffffffffffffffffffffffffffffffffffffff1660a08173ffffffffffffffffffffffffffffffffffffffff1681525050505062000150565b5f80fd5b5f73ffffffffffffffffffffffffffffffffffffffff82169050919050565b5f620000d582620000aa565b9050919050565b620000e781620000c9565b8114620000f2575f80fd5b50565b5f815190506200010581620000dc565b92915050565b5f8060408385031215620001245762000123620000a6565b5b5f6200013385828601620000f5565b92505060206200014685828601620000f5565b9150509250929050565b60805160a051611625620001e95f395f81816102d6015281816104b9015281816105fb015281816108550152818161094e01528181610a7a01528181610ae701528181610ced0152610d9601525f81816101ee0152818161023b0152818161041d0152818161055d015281816107bd015281816108f901528181610a2001528181610a9b01528181610ac60152610c5501526116255ff3fe608060405234801561000f575f80fd5b5060043610610091575f3560e01c806370a082311161006457806370a082311461010d5780639c8f9f231461013d5780639cd441da1461016e578063d004f0f71461019e578063d21220a7146101ce57610091565b80630dfe16811461009557806318160ddd146100b3578063443cb4bc146100d15780635a76f25e146100ef575b5f80fd5b61009d6101ec565b6040516100aa9190610fb1565b60405180910390f35b6100bb610210565b6040516100c89190610fe2565b60405180910390f35b6100d9610216565b6040516100e69190610fe2565b60405180910390f35b6100f761021b565b6040516101049190610fe2565b60405180910390f35b6101276004803603810190610122919061103a565b610221565b6040516101349190610fe2565b60405180910390f35b6101576004803603810190610152919061108f565b610236565b6040516101659291906110ba565b60405180910390f35b610188600480360381019061018391906110e1565b61055a565b6040516101959190610fe2565b60405180910390f35b6101b860048036038101906101b3919061111f565b6108f6565b6040516101c59190610fe2565b60405180910390f35b6101d6610d94565b6040516101e39190610fb1565b60405180910390f35b7f000000000000000000000000000000000000000000000000000000000000000081565b60025481565b5f5481565b60015481565b6003602052805f5260405f205f915090505481565b5f805f7f000000000000000000000000000000000000000000000000000000000000000073ffffffffffffffffffffffffffffffffffffffff166370a08231306040518263ffffffff1660e01b8152600401610292919061116c565b602060405180830381865afa1580156102ad573d5f803e3d5ffd5b505050506040513d601f19601f820116820180604052508101906102d19190611199565b90505f7f000000000000000000000000000000000000000000000000000000000000000073ffffffffffffffffffffffffffffffffffffffff166370a08231306040518263ffffffff1660e01b815260040161032d919061116c565b602060405180830381865afa158015610348573d5f803e3d5ffd5b505050506040513d601f19601f8201168201806040525081019061036c9190611199565b9050600254828661037d91906111f1565b610387919061125f565b9350600254818661039891906111f1565b6103a2919061125f565b92505f841180156103b257505f83115b6103f1576040517f08c379a00000000000000000000000000000000000000000000000000000000081526004016103e8906112e9565b60405180910390fd5b6103fb3386610db8565b61041b848361040a9190611307565b84836104169190611307565b610e27565b7f000000000000000000000000000000000000000000000000000000000000000073ffffffffffffffffffffffffffffffffffffffff1663a9059cbb33866040518363ffffffff1660e01b815260040161047692919061133a565b6020604051808303815f875af1158015610492573d5f803e3d5ffd5b505050506040513d601f19601f820116820180604052508101906104b69190611396565b507f000000000000000000000000000000000000000000000000000000000000000073ffffffffffffffffffffffffffffffffffffffff1663a9059cbb33856040518363ffffffff1660e01b815260040161051292919061133a565b6020604051808303815f875af115801561052e573d5f803e3d5ffd5b505050506040513d601f19601f820116820180604052508101906105529190611396565b505050915091565b5f7f000000000000000000000000000000000000000000000000000000000000000073ffffffffffffffffffffffffffffffffffffffff166323b872dd3330866040518463ffffffff1660e01b81526004016105b8939291906113c1565b6020604051808303815f875af11580156105d4573d5f803e3d5ffd5b505050506040513d601f19601f820116820180604052508101906105f89190611396565b507f000000000000000000000000000000000000000000000000000000000000000073ffffffffffffffffffffffffffffffffffffffff166323b872dd3330856040518463ffffffff1660e01b8152600401610656939291906113c1565b6020604051808303815f875af1158015610672573d5f803e3d5ffd5b505050506040513d601f19601f820116820180604052508101906106969190611396565b505f805411806106a757505f600154115b1561070857826001546106ba91906111f1565b825f546106c791906111f1565b14610707576040517f08c379a00000000000000000000000000000000000000000000000000000000081526004016106fe90611466565b60405180910390fd5b5b5f6002540361072c57610725828461072091906111f1565b610e38565b905061076c565b6107695f546002548561073f91906111f1565b610749919061125f565b6001546002548561075a91906111f1565b610764919061125f565b610eaf565b90505b5f81116107ae576040517f08c379a00000000000000000000000000000000000000000000000000000000081526004016107a5906114ce565b60405180910390fd5b6107b83382610ec8565b6108f07f000000000000000000000000000000000000000000000000000000000000000073ffffffffffffffffffffffffffffffffffffffff166370a08231306040518263ffffffff1660e01b8152600401610814919061116c565b602060405180830381865afa15801561082f573d5f803e3d5ffd5b505050506040513d601f19601f820116820180604052508101906108539190611199565b7f000000000000000000000000000000000000000000000000000000000000000073ffffffffffffffffffffffffffffffffffffffff166370a08231306040518263ffffffff1660e01b81526004016108ac919061116c565b602060405180830381865afa1580156108c7573d5f803e3d5ffd5b505050506040513d601f19601f820116820180604052508101906108eb9190611199565b610e27565b92915050565b5f7f000000000000000000000000000000000000000000000000000000000000000073ffffffffffffffffffffffffffffffffffffffff168373ffffffffffffffffffffffffffffffffffffffff16148061099c57507f000000000000000000000000000000000000000000000000000000000000000073ffffffffffffffffffffffffffffffffffffffff168373ffffffffffffffffffffffffffffffffffffffff16145b6109db576040517f08c379a00000000000000000000000000000000000000000000000000000000081526004016109d290611536565b60405180910390fd5b5f8211610a1d576040517f08c379a0000000000000000000000000000000000000000000000000000000008152600401610a149061159e565b60405180910390fd5b5f7f000000000000000000000000000000000000000000000000000000000000000073ffffffffffffffffffffffffffffffffffffffff168473ffffffffffffffffffffffffffffffffffffffff161490505f805f8084610ac4577f00000000000000000000000000000000000000000000000000000000000000007f00000000000000000000000000000000000000000000000000000000000000006001545f54610b0c565b7f00000000000000000000000000000000000000000000000000000000000000007f00000000000000000000000000000000000000000000000000000000000000005f546001545b93509350935093508373ffffffffffffffffffffffffffffffffffffffff166323b872dd33308a6040518463ffffffff1660e01b8152600401610b51939291906113c1565b6020604051808303815f875af1158015610b6d573d5f803e3d5ffd5b505050506040513d601f19601f82011682018060405250810190610b919190611396565b505f6103e86103e589610ba491906111f1565b610bae919061125f565b90508083610bbc91906115bc565b8183610bc891906111f1565b610bd2919061125f565b96508373ffffffffffffffffffffffffffffffffffffffff1663a9059cbb33896040518363ffffffff1660e01b8152600401610c0f92919061133a565b6020604051808303815f875af1158015610c2b573d5f803e3d5ffd5b505050506040513d601f19601f82011682018060405250810190610c4f9190611396565b50610d887f000000000000000000000000000000000000000000000000000000000000000073ffffffffffffffffffffffffffffffffffffffff166370a08231306040518263ffffffff1660e01b8152600401610cac919061116c565b602060405180830381865afa158015610cc7573d5f803e3d5ffd5b505050506040513d601f19601f82011682018060405250810190610ceb9190611199565b7f000000000000000000000000000000000000000000000000000000000000000073ffffffffffffffffffffffffffffffffffffffff166370a08231306040518263ffffffff1660e01b8152600401610d44919061116c565b602060405180830381865afa158015610d5f573d5f803e3d5ffd5b505050506040513d601f19601f82011682018060405250810190610d839190611199565b610e27565b50505050505092915050565b7f000000000000000000000000000000000000000000000000000000000000000081565b8060035f8473ffffffffffffffffffffffffffffffffffffffff1673ffffffffffffffffffffffffffffffffffffffff1681526020019081526020015f205f828254610e049190611307565b925050819055508060025f828254610e1c9190611307565b925050819055505050565b815f81905550806001819055505050565b5f6003821115610e9d578190505f6001600284610e55919061125f565b610e5f91906115bc565b90505b81811015610e97578091506002818285610e7c919061125f565b610e8691906115bc565b610e90919061125f565b9050610e62565b50610eaa565b5f8214610ea957600190505b5b919050565b5f81831115610ebe5781610ec0565b825b905092915050565b8060035f8473ffffffffffffffffffffffffffffffffffffffff1673ffffffffffffffffffffffffffffffffffffffff1681526020019081526020015f205f828254610f1491906115bc565b925050819055508060025f828254610f2c91906115bc565b925050819055505050565b5f73ffffffffffffffffffffffffffffffffffffffff82169050919050565b5f819050919050565b5f610f79610f74610f6f84610f37565b610f56565b610f37565b9050919050565b5f610f8a82610f5f565b9050919050565b5f610f9b82610f80565b9050919050565b610fab81610f91565b82525050565b5f602082019050610fc45f830184610fa2565b92915050565b5f819050919050565b610fdc81610fca565b82525050565b5f602082019050610ff55f830184610fd3565b92915050565b5f80fd5b5f61100982610f37565b9050919050565b61101981610fff565b8114611023575f80fd5b50565b5f8135905061103481611010565b92915050565b5f6020828403121561104f5761104e610ffb565b5b5f61105c84828501611026565b91505092915050565b61106e81610fca565b8114611078575f80fd5b50565b5f8135905061108981611065565b92915050565b5f602082840312156110a4576110a3610ffb565b5b5f6110b18482850161107b565b91505092915050565b5f6040820190506110cd5f830185610fd3565b6110da6020830184610fd3565b9392505050565b5f80604083850312156110f7576110f6610ffb565b5b5f6111048582860161107b565b92505060206111158582860161107b565b9150509250929050565b5f806040838503121561113557611134610ffb565b5b5f61114285828601611026565b92505060206111538582860161107b565b9150509250929050565b61116681610fff565b82525050565b5f60208201905061117f5f83018461115d565b92915050565b5f8151905061119381611065565b92915050565b5f602082840312156111ae576111ad610ffb565b5b5f6111bb84828501611185565b91505092915050565b7f4e487b71000000000000000000000000000000000000000000000000000000005f52601160045260245ffd5b5f6111fb82610fca565b915061120683610fca565b925082820261121481610fca565b9150828204841483151761122b5761122a6111c4565b5b5092915050565b7f4e487b71000000000000000000000000000000000000000000000000000000005f52601260045260245ffd5b5f61126982610fca565b915061127483610fca565b92508261128457611283611232565b5b828204905092915050565b5f82825260208201905092915050565b7f616d6f756e7430206f7220616d6f756e7431203d2030000000000000000000005f82015250565b5f6112d360168361128f565b91506112de8261129f565b602082019050919050565b5f6020820190508181035f830152611300816112c7565b9050919050565b5f61131182610fca565b915061131c83610fca565b9250828203905081811115611334576113336111c4565b5b92915050565b5f60408201905061134d5f83018561115d565b61135a6020830184610fd3565b9392505050565b5f8115159050919050565b61137581611361565b811461137f575f80fd5b50565b5f815190506113908161136c565b92915050565b5f602082840312156113ab576113aa610ffb565b5b5f6113b884828501611382565b91505092915050565b5f6060820190506113d45f83018661115d565b6113e1602083018561115d565b6113ee6040830184610fd3565b949350505050565b7f78202f207920213d206478202f2064793b2077652063616e206e6f74206368615f8201527f6e67652076616c7565206f6620636f6e7374616e740000000000000000000000602082015250565b5f61145060358361128f565b915061145b826113f6565b604082019050919050565b5f6020820190508181035f83015261147d81611444565b9050919050565b7f736861726573203d2030000000000000000000000000000000000000000000005f82015250565b5f6114b8600a8361128f565b91506114c382611484565b602082019050919050565b5f6020820190508181035f8301526114e5816114ac565b9050919050565b7f696e76616c696420746f6b656e000000000000000000000000000000000000005f82015250565b5f611520600d8361128f565b915061152b826114ec565b602082019050919050565b5f6020820190508181035f83015261154d81611514565b9050919050565b7f616d6f756e7420696e203d2030000000000000000000000000000000000000005f82015250565b5f611588600d8361128f565b915061159382611554565b602082019050919050565b5f6020820190508181035f8301526115b58161157c565b9050919050565b5f6115c682610fca565b91506115d183610fca565b92508282019050808211156115e9576115e86111c4565b5b9291505056fea2646970667358221220422ff70b2c56b358abaa1a17720b9ed71b97b2c36999664c58dc99733b91c6c264736f6c63430008140033",
			"opcodes": "PUSH1 0xC0 PUSH1 0x40 MSTORE CALLVALUE DUP1 ISZERO PUSH3 0x10 JUMPI PUSH0 DUP1 REVERT JUMPDEST POP PUSH1 0x40 MLOAD PUSH3 0x180E CODESIZE SUB DUP1 PUSH3 0x180E DUP4 CODECOPY DUP2 DUP2 ADD PUSH1 0x40 MSTORE DUP2 ADD SWAP1 PUSH3 0x36 SWAP2 SWAP1 PUSH3 0x10B JUMP JUMPDEST DUP2 PUSH20 0xFFFFFFFFFFFFFFFFFFFFFFFFFFFFFFFFFFFFFFFF AND PUSH1 0x80 DUP2 PUSH20 0xFFFFFFFFFFFFFFFFFFFFFFFFFFFFFFFFFFFFFFFF AND DUP2 MSTORE POP POP DUP1 PUSH20 0xFFFFFFFFFFFFFFFFFFFFFFFFFFFFFFFFFFFFFFFF AND PUSH1 0xA0 DUP2 PUSH20 0xFFFFFFFFFFFFFFFFFFFFFFFFFFFFFFFFFFFFFFFF AND DUP2 MSTORE POP POP POP POP PUSH3 0x150 JUMP JUMPDEST PUSH0 DUP1 REVERT JUMPDEST PUSH0 PUSH20 0xFFFFFFFFFFFFFFFFFFFFFFFFFFFFFFFFFFFFFFFF DUP3 AND SWAP1 POP SWAP2 SWAP1 POP JUMP JUMPDEST PUSH0 PUSH3 0xD5 DUP3 PUSH3 0xAA JUMP JUMPDEST SWAP1 POP SWAP2 SWAP1 POP JUMP JUMPDEST PUSH3 0xE7 DUP2 PUSH3 0xC9 JUMP JUMPDEST DUP2 EQ PUSH3 0xF2 JUMPI PUSH0 DUP1 REVERT JUMPDEST POP JUMP JUMPDEST PUSH0 DUP2 MLOAD SWAP1 POP PUSH3 0x105 DUP2 PUSH3 0xDC JUMP JUMPDEST SWAP3 SWAP2 POP POP JUMP JUMPDEST PUSH0 DUP1 PUSH1 0x40 DUP4 DUP6 SUB SLT ISZERO PUSH3 0x124 JUMPI PUSH3 0x123 PUSH3 0xA6 JUMP JUMPDEST JUMPDEST PUSH0 PUSH3 0x133 DUP6 DUP3 DUP7 ADD PUSH3 0xF5 JUMP JUMPDEST SWAP3 POP POP PUSH1 0x20 PUSH3 0x146 DUP6 DUP3 DUP7 ADD PUSH3 0xF5 JUMP JUMPDEST SWAP2 POP POP SWAP3 POP SWAP3 SWAP1 POP JUMP JUMPDEST PUSH1 0x80 MLOAD PUSH1 0xA0 MLOAD PUSH2 0x1625 PUSH3 0x1E9 PUSH0 CODECOPY PUSH0 DUP2 DUP2 PUSH2 0x2D6 ADD MSTORE DUP2 DUP2 PUSH2 0x4B9 ADD MSTORE DUP2 DUP2 PUSH2 0x5FB ADD MSTORE DUP2 DUP2 PUSH2 0x855 ADD MSTORE DUP2 DUP2 PUSH2 0x94E ADD MSTORE DUP2 DUP2 PUSH2 0xA7A ADD MSTORE DUP2 DUP2 PUSH2 0xAE7 ADD MSTORE DUP2 DUP2 PUSH2 0xCED ADD MSTORE PUSH2 0xD96 ADD MSTORE PUSH0 DUP2 DUP2 PUSH2 0x1EE ADD MSTORE DUP2 DUP2 PUSH2 0x23B ADD MSTORE DUP2 DUP2 PUSH2 0x41D ADD MSTORE DUP2 DUP2 PUSH2 0x55D ADD MSTORE DUP2 DUP2 PUSH2 0x7BD ADD MSTORE DUP2 DUP2 PUSH2 0x8F9 ADD MSTORE DUP2 DUP2 PUSH2 0xA20 ADD MSTORE DUP2 DUP2 PUSH2 0xA9B ADD MSTORE DUP2 DUP2 PUSH2 0xAC6 ADD MSTORE PUSH2 0xC55 ADD MSTORE PUSH2 0x1625 PUSH0 RETURN INVALID PUSH1 0x80 PUSH1 0x40 MSTORE CALLVALUE DUP1 ISZERO PUSH2 0xF JUMPI PUSH0 DUP1 REVERT JUMPDEST POP PUSH1 0x4 CALLDATASIZE LT PUSH2 0x91 JUMPI PUSH0 CALLDATALOAD PUSH1 0xE0 SHR DUP1 PUSH4 0x70A08231 GT PUSH2 0x64 JUMPI DUP1 PUSH4 0x70A08231 EQ PUSH2 0x10D JUMPI DUP1 PUSH4 0x9C8F9F23 EQ PUSH2 0x13D JUMPI DUP1 PUSH4 0x9CD441DA EQ PUSH2 0x16E JUMPI DUP1 PUSH4 0xD004F0F7 EQ PUSH2 0x19E JUMPI DUP1 PUSH4 0xD21220A7 EQ PUSH2 0x1CE JUMPI PUSH2 0x91 JUMP JUMPDEST DUP1 PUSH4 0xDFE1681 EQ PUSH2 0x95 JUMPI DUP1 PUSH4 0x18160DDD EQ PUSH2 0xB3 JUMPI DUP1 PUSH4 0x443CB4BC EQ PUSH2 0xD1 JUMPI DUP1 PUSH4 0x5A76F25E EQ PUSH2 0xEF JUMPI JUMPDEST PUSH0 DUP1 REVERT JUMPDEST PUSH2 0x9D PUSH2 0x1EC JUMP JUMPDEST PUSH1 0x40 MLOAD PUSH2 0xAA SWAP2 SWAP1 PUSH2 0xFB1 JUMP JUMPDEST PUSH1 0x40 MLOAD DUP1 SWAP2 SUB SWAP1 RETURN JUMPDEST PUSH2 0xBB PUSH2 0x210 JUMP JUMPDEST PUSH1 0x40 MLOAD PUSH2 0xC8 SWAP2 SWAP1 PUSH2 0xFE2 JUMP JUMPDEST PUSH1 0x40 MLOAD DUP1 SWAP2 SUB SWAP1 RETURN JUMPDEST PUSH2 0xD9 PUSH2 0x216 JUMP JUMPDEST PUSH1 0x40 MLOAD PUSH2 0xE6 SWAP2 SWAP1 PUSH2 0xFE2 JUMP JUMPDEST PUSH1 0x40 MLOAD DUP1 SWAP2 SUB SWAP1 RETURN JUMPDEST PUSH2 0xF7 PUSH2 0x21B JUMP JUMPDEST PUSH1 0x40 MLOAD PUSH2 0x104 SWAP2 SWAP1 PUSH2 0xFE2 JUMP JUMPDEST PUSH1 0x40 MLOAD DUP1 SWAP2 SUB SWAP1 RETURN JUMPDEST PUSH2 0x127 PUSH1 0x4 DUP1 CALLDATASIZE SUB DUP2 ADD SWAP1 PUSH2 0x122 SWAP2 SWAP1 PUSH2 0x103A JUMP JUMPDEST PUSH2 0x221 JUMP JUMPDEST PUSH1 0x40 MLOAD PUSH2 0x134 SWAP2 SWAP1 PUSH2 0xFE2 JUMP JUMPDEST PUSH1 0x40 MLOAD DUP1 SWAP2 SUB SWAP1 RETURN JUMPDEST PUSH2 0x157 PUSH1 0x4 DUP1 CALLDATASIZE SUB DUP2 ADD SWAP1 PUSH2 0x152 SWAP2 SWAP1 PUSH2 0x108F JUMP JUMPDEST PUSH2 0x236 JUMP JUMPDEST PUSH1 0x40 MLOAD PUSH2 0x165 SWAP3 SWAP2 SWAP1 PUSH2 0x10BA JUMP JUMPDEST PUSH1 0x40 MLOAD DUP1 SWAP2 SUB SWAP1 RETURN JUMPDEST PUSH2 0x188 PUSH1 0x4 DUP1 CALLDATASIZE SUB DUP2 ADD SWAP1 PUSH2 0x183 SWAP2 SWAP1 PUSH2 0x10E1 JUMP JUMPDEST PUSH2 0x55A JUMP JUMPDEST PUSH1 0x40 MLOAD PUSH2 0x195 SWAP2 SWAP1 PUSH2 0xFE2 JUMP JUMPDEST PUSH1 0x40 MLOAD DUP1 SWAP2 SUB SWAP1 RETURN JUMPDEST PUSH2 0x1B8 PUSH1 0x4 DUP1 CALLDATASIZE SUB DUP2 ADD SWAP1 PUSH2 0x1B3 SWAP2 SWAP1 PUSH2 0x111F JUMP JUMPDEST PUSH2 0x8F6 JUMP JUMPDEST PUSH1 0x40 MLOAD PUSH2 0x1C5 SWAP2 SWAP1 PUSH2 0xFE2 JUMP JUMPDEST PUSH1 0x40 MLOAD DUP1 SWAP2 SUB SWAP1 RETURN JUMPDEST PUSH2 0x1D6 PUSH2 0xD94 JUMP JUMPDEST PUSH1 0x40 MLOAD PUSH2 0x1E3 SWAP2 SWAP1 PUSH2 0xFB1 JUMP JUMPDEST PUSH1 0x40 MLOAD DUP1 SWAP2 SUB SWAP1 RETURN JUMPDEST PUSH32 0x0 DUP2 JUMP JUMPDEST PUSH1 0x2 SLOAD DUP2 JUMP JUMPDEST PUSH0 SLOAD DUP2 JUMP JUMPDEST PUSH1 0x1 SLOAD DUP2 JUMP JUMPDEST PUSH1 0x3 PUSH1 0x20 MSTORE DUP1 PUSH0 MSTORE PUSH1 0x40 PUSH0 KECCAK256 PUSH0 SWAP2 POP SWAP1 POP SLOAD DUP2 JUMP JUMPDEST PUSH0 DUP1 PUSH0 PUSH32 0x0 PUSH20 0xFFFFFFFFFFFFFFFFFFFFFFFFFFFFFFFFFFFFFFFF AND PUSH4 0x70A08231 ADDRESS PUSH1 0x40 MLOAD DUP3 PUSH4 0xFFFFFFFF AND PUSH1 0xE0 SHL DUP2 MSTORE PUSH1 0x4 ADD PUSH2 0x292 SWAP2 SWAP1 PUSH2 0x116C JUMP JUMPDEST PUSH1 0x20 PUSH1 0x40 MLOAD DUP1 DUP4 SUB DUP2 DUP7 GAS STATICCALL ISZERO DUP1 ISZERO PUSH2 0x2AD JUMPI RETURNDATASIZE PUSH0 DUP1 RETURNDATACOPY RETURNDATASIZE PUSH0 REVERT JUMPDEST POP POP POP POP PUSH1 0x40 MLOAD RETURNDATASIZE PUSH1 0x1F NOT PUSH1 0x1F DUP3 ADD AND DUP3 ADD DUP1 PUSH1 0x40 MSTORE POP DUP2 ADD SWAP1 PUSH2 0x2D1 SWAP2 SWAP1 PUSH2 0x1199 JUMP JUMPDEST SWAP1 POP PUSH0 PUSH32 0x0 PUSH20 0xFFFFFFFFFFFFFFFFFFFFFFFFFFFFFFFFFFFFFFFF AND PUSH4 0x70A08231 ADDRESS PUSH1 0x40 MLOAD DUP3 PUSH4 0xFFFFFFFF AND PUSH1 0xE0 SHL DUP2 MSTORE PUSH1 0x4 ADD PUSH2 0x32D SWAP2 SWAP1 PUSH2 0x116C JUMP JUMPDEST PUSH1 0x20 PUSH1 0x40 MLOAD DUP1 DUP4 SUB DUP2 DUP7 GAS STATICCALL ISZERO DUP1 ISZERO PUSH2 0x348 JUMPI RETURNDATASIZE PUSH0 DUP1 RETURNDATACOPY RETURNDATASIZE PUSH0 REVERT JUMPDEST POP POP POP POP PUSH1 0x40 MLOAD RETURNDATASIZE PUSH1 0x1F NOT PUSH1 0x1F DUP3 ADD AND DUP3 ADD DUP1 PUSH1 0x40 MSTORE POP DUP2 ADD SWAP1 PUSH2 0x36C SWAP2 SWAP1 PUSH2 0x1199 JUMP JUMPDEST SWAP1 POP PUSH1 0x2 SLOAD DUP3 DUP7 PUSH2 0x37D SWAP2 SWAP1 PUSH2 0x11F1 JUMP JUMPDEST PUSH2 0x387 SWAP2 SWAP1 PUSH2 0x125F JUMP JUMPDEST SWAP4 POP PUSH1 0x2 SLOAD DUP2 DUP7 PUSH2 0x398 SWAP2 SWAP1 PUSH2 0x11F1 JUMP JUMPDEST PUSH2 0x3A2 SWAP2 SWAP1 PUSH2 0x125F JUMP JUMPDEST SWAP3 POP PUSH0 DUP5 GT DUP1 ISZERO PUSH2 0x3B2 JUMPI POP PUSH0 DUP4 GT JUMPDEST PUSH2 0x3F1 JUMPI PUSH1 0x40 MLOAD PUSH32 0x8C379A000000000000000000000000000000000000000000000000000000000 DUP2 MSTORE PUSH1 0x4 ADD PUSH2 0x3E8 SWAP1 PUSH2 0x12E9 JUMP JUMPDEST PUSH1 0x40 MLOAD DUP1 SWAP2 SUB SWAP1 REVERT JUMPDEST PUSH2 0x3FB CALLER DUP7 PUSH2 0xDB8 JUMP JUMPDEST PUSH2 0x41B DUP5 DUP4 PUSH2 0x40A SWAP2 SWAP1 PUSH2 0x1307 JUMP JUMPDEST DUP5 DUP4 PUSH2 0x416 SWAP2 SWAP1 PUSH2 0x1307 JUMP JUMPDEST PUSH2 0xE27 JUMP JUMPDEST PUSH32 0x0 PUSH20 0xFFFFFFFFFFFFFFFFFFFFFFFFFFFFFFFFFFFFFFFF AND PUSH4 0xA9059CBB CALLER DUP7 PUSH1 0x40 MLOAD DUP4 PUSH4 0xFFFFFFFF AND PUSH1 0xE0 SHL DUP2 MSTORE PUSH1 0x4 ADD PUSH2 0x476 SWAP3 SWAP2 SWAP1 PUSH2 0x133A JUMP JUMPDEST PUSH1 0x20 PUSH1 0x40 MLOAD DUP1 DUP4 SUB DUP2 PUSH0 DUP8 GAS CALL ISZERO DUP1 ISZERO PUSH2 0x492 JUMPI RETURNDATASIZE PUSH0 DUP1 RETURNDATACOPY RETURNDATASIZE PUSH0 REVERT JUMPDEST POP POP POP POP PUSH1 0x40 MLOAD RETURNDATASIZE PUSH1 0x1F NOT PUSH1 0x1F DUP3 ADD AND DUP3 ADD DUP1 PUSH1 0x40 MSTORE POP DUP2 ADD SWAP1 PUSH2 0x4B6 SWAP2 SWAP1 PUSH2 0x1396 JUMP JUMPDEST POP PUSH32 0x0 PUSH20 0xFFFFFFFFFFFFFFFFFFFFFFFFFFFFFFFFFFFFFFFF AND PUSH4 0xA9059CBB CALLER DUP6 PUSH1 0x40 MLOAD DUP4 PUSH4 0xFFFFFFFF AND PUSH1 0xE0 SHL DUP2 MSTORE PUSH1 0x4 ADD PUSH2 0x512 SWAP3 SWAP2 SWAP1 PUSH2 0x133A JUMP JUMPDEST PUSH1 0x20 PUSH1 0x40 MLOAD DUP1 DUP4 SUB DUP2 PUSH0 DUP8 GAS CALL ISZERO DUP1 ISZERO PUSH2 0x52E JUMPI RETURNDATASIZE PUSH0 DUP1 RETURNDATACOPY RETURNDATASIZE PUSH0 REVERT JUMPDEST POP POP POP POP PUSH1 0x40 MLOAD RETURNDATASIZE PUSH1 0x1F NOT PUSH1 0x1F DUP3 ADD AND DUP3 ADD DUP1 PUSH1 0x40 MSTORE POP DUP2 ADD SWAP1 PUSH2 0x552 SWAP2 SWAP1 PUSH2 0x1396 JUMP JUMPDEST POP POP POP SWAP2 POP SWAP2 JUMP JUMPDEST PUSH0 PUSH32 0x0 PUSH20 0xFFFFFFFFFFFFFFFFFFFFFFFFFFFFFFFFFFFFFFFF AND PUSH4 0x23B872DD CALLER ADDRESS DUP7 PUSH1 0x40 MLOAD DUP5 PUSH4 0xFFFFFFFF AND PUSH1 0xE0 SHL DUP2 MSTORE PUSH1 0x4 ADD PUSH2 0x5B8 SWAP4 SWAP3 SWAP2 SWAP1 PUSH2 0x13C1 JUMP JUMPDEST PUSH1 0x20 PUSH1 0x40 MLOAD DUP1 DUP4 SUB DUP2 PUSH0 DUP8 GAS CALL ISZERO DUP1 ISZERO PUSH2 0x5D4 JUMPI RETURNDATASIZE PUSH0 DUP1 RETURNDATACOPY RETURNDATASIZE PUSH0 REVERT JUMPDEST POP POP POP POP PUSH1 0x40 MLOAD RETURNDATASIZE PUSH1 0x1F NOT PUSH1 0x1F DUP3 ADD AND DUP3 ADD DUP1 PUSH1 0x40 MSTORE POP DUP2 ADD SWAP1 PUSH2 0x5F8 SWAP2 SWAP1 PUSH2 0x1396 JUMP JUMPDEST POP PUSH32 0x0 PUSH20 0xFFFFFFFFFFFFFFFFFFFFFFFFFFFFFFFFFFFFFFFF AND PUSH4 0x23B872DD CALLER ADDRESS DUP6 PUSH1 0x40 MLOAD DUP5 PUSH4 0xFFFFFFFF AND PUSH1 0xE0 SHL DUP2 MSTORE PUSH1 0x4 ADD PUSH2 0x656 SWAP4 SWAP3 SWAP2 SWAP1 PUSH2 0x13C1 JUMP JUMPDEST PUSH1 0x20 PUSH1 0x40 MLOAD DUP1 DUP4 SUB DUP2 PUSH0 DUP8 GAS CALL ISZERO DUP1 ISZERO PUSH2 0x672 JUMPI RETURNDATASIZE PUSH0 DUP1 RETURNDATACOPY RETURNDATASIZE PUSH0 REVERT JUMPDEST POP POP POP POP PUSH1 0x40 MLOAD RETURNDATASIZE PUSH1 0x1F NOT PUSH1 0x1F DUP3 ADD AND DUP3 ADD DUP1 PUSH1 0x40 MSTORE POP DUP2 ADD SWAP1 PUSH2 0x696 SWAP2 SWAP1 PUSH2 0x1396 JUMP JUMPDEST POP PUSH0 DUP1 SLOAD GT DUP1 PUSH2 0x6A7 JUMPI POP PUSH0 PUSH1 0x1 SLOAD GT JUMPDEST ISZERO PUSH2 0x708 JUMPI DUP3 PUSH1 0x1 SLOAD PUSH2 0x6BA SWAP2 SWAP1 PUSH2 0x11F1 JUMP JUMPDEST DUP3 PUSH0 SLOAD PUSH2 0x6C7 SWAP2 SWAP1 PUSH2 0x11F1 JUMP JUMPDEST EQ PUSH2 0x707 JUMPI PUSH1 0x40 MLOAD PUSH32 0x8C379A000000000000000000000000000000000000000000000000000000000 DUP2 MSTORE PUSH1 0x4 ADD PUSH2 0x6FE SWAP1 PUSH2 0x1466 JUMP JUMPDEST PUSH1 0x40 MLOAD DUP1 SWAP2 SUB SWAP1 REVERT JUMPDEST JUMPDEST PUSH0 PUSH1 0x2 SLOAD SUB PUSH2 0x72C JUMPI PUSH2 0x725 DUP3 DUP5 PUSH2 0x720 SWAP2 SWAP1 PUSH2 0x11F1 JUMP JUMPDEST PUSH2 0xE38 JUMP JUMPDEST SWAP1 POP PUSH2 0x76C JUMP JUMPDEST PUSH2 0x769 PUSH0 SLOAD PUSH1 0x2 SLOAD DUP6 PUSH2 0x73F SWAP2 SWAP1 PUSH2 0x11F1 JUMP JUMPDEST PUSH2 0x749 SWAP2 SWAP1 PUSH2 0x125F JUMP JUMPDEST PUSH1 0x1 SLOAD PUSH1 0x2 SLOAD DUP6 PUSH2 0x75A SWAP2 SWAP1 PUSH2 0x11F1 JUMP JUMPDEST PUSH2 0x764 SWAP2 SWAP1 PUSH2 0x125F JUMP JUMPDEST PUSH2 0xEAF JUMP JUMPDEST SWAP1 POP JUMPDEST PUSH0 DUP2 GT PUSH2 0x7AE JUMPI PUSH1 0x40 MLOAD PUSH32 0x8C379A000000000000000000000000000000000000000000000000000000000 DUP2 MSTORE PUSH1 0x4 ADD PUSH2 0x7A5 SWAP1 PUSH2 0x14CE JUMP JUMPDEST PUSH1 0x40 MLOAD DUP1 SWAP2 SUB SWAP1 REVERT JUMPDEST PUSH2 0x7B8 CALLER DUP3 PUSH2 0xEC8 JUMP JUMPDEST PUSH2 0x8F0 PUSH32 0x0 PUSH20 0xFFFFFFFFFFFFFFFFFFFFFFFFFFFFFFFFFFFFFFFF AND PUSH4 0x70A08231 ADDRESS PUSH1 0x40 MLOAD DUP3 PUSH4 0xFFFFFFFF AND PUSH1 0xE0 SHL DUP2 MSTORE PUSH1 0x4 ADD PUSH2 0x814 SWAP2 SWAP1 PUSH2 0x116C JUMP JUMPDEST PUSH1 0x20 PUSH1 0x40 MLOAD DUP1 DUP4 SUB DUP2 DUP7 GAS STATICCALL ISZERO DUP1 ISZERO PUSH2 0x82F JUMPI RETURNDATASIZE PUSH0 DUP1 RETURNDATACOPY RETURNDATASIZE PUSH0 REVERT JUMPDEST POP POP POP POP PUSH1 0x40 MLOAD RETURNDATASIZE PUSH1 0x1F NOT PUSH1 0x1F DUP3 ADD AND DUP3 ADD DUP1 PUSH1 0x40 MSTORE POP DUP2 ADD SWAP1 PUSH2 0x853 SWAP2 SWAP1 PUSH2 0x1199 JUMP JUMPDEST PUSH32 0x0 PUSH20 0xFFFFFFFFFFFFFFFFFFFFFFFFFFFFFFFFFFFFFFFF AND PUSH4 0x70A08231 ADDRESS PUSH1 0x40 MLOAD DUP3 PUSH4 0xFFFFFFFF AND PUSH1 0xE0 SHL DUP2 MSTORE PUSH1 0x4 ADD PUSH2 0x8AC SWAP2 SWAP1 PUSH2 0x116C JUMP JUMPDEST PUSH1 0x20 PUSH1 0x40 MLOAD DUP1 DUP4 SUB DUP2 DUP7 GAS STATICCALL ISZERO DUP1 ISZERO PUSH2 0x8C7 JUMPI RETURNDATASIZE PUSH0 DUP1 RETURNDATACOPY RETURNDATASIZE PUSH0 REVERT JUMPDEST POP POP POP POP PUSH1 0x40 MLOAD RETURNDATASIZE PUSH1 0x1F NOT PUSH1 0x1F DUP3 ADD AND DUP3 ADD DUP1 PUSH1 0x40 MSTORE POP DUP2 ADD SWAP1 PUSH2 0x8EB SWAP2 SWAP1 PUSH2 0x1199 JUMP JUMPDEST PUSH2 0xE27 JUMP JUMPDEST SWAP3 SWAP2 POP POP JUMP JUMPDEST PUSH0 PUSH32 0x0 PUSH20 0xFFFFFFFFFFFFFFFFFFFFFFFFFFFFFFFFFFFFFFFF AND DUP4 PUSH20 0xFFFFFFFFFFFFFFFFFFFFFFFFFFFFFFFFFFFFFFFF AND EQ DUP1 PUSH2 0x99C JUMPI POP PUSH32 0x0 PUSH20 0xFFFFFFFFFFFFFFFFFFFFFFFFFFFFFFFFFFFFFFFF AND DUP4 PUSH20 0xFFFFFFFFFFFFFFFFFFFFFFFFFFFFFFFFFFFFFFFF AND EQ JUMPDEST PUSH2 0x9DB JUMPI PUSH1 0x40 MLOAD PUSH32 0x8C379A000000000000000000000000000000000000000000000000000000000 DUP2 MSTORE PUSH1 0x4 ADD PUSH2 0x9D2 SWAP1 PUSH2 0x1536 JUMP JUMPDEST PUSH1 0x40 MLOAD DUP1 SWAP2 SUB SWAP1 REVERT JUMPDEST PUSH0 DUP3 GT PUSH2 0xA1D JUMPI PUSH1 0x40 MLOAD PUSH32 0x8C379A000000000000000000000000000000000000000000000000000000000 DUP2 MSTORE PUSH1 0x4 ADD PUSH2 0xA14 SWAP1 PUSH2 0x159E JUMP JUMPDEST PUSH1 0x40 MLOAD DUP1 SWAP2 SUB SWAP1 REVERT JUMPDEST PUSH0 PUSH32 0x0 PUSH20 0xFFFFFFFFFFFFFFFFFFFFFFFFFFFFFFFFFFFFFFFF AND DUP5 PUSH20 0xFFFFFFFFFFFFFFFFFFFFFFFFFFFFFFFFFFFFFFFF AND EQ SWAP1 POP PUSH0 DUP1 PUSH0 DUP1 DUP5 PUSH2 0xAC4 JUMPI PUSH32 0x0 PUSH32 0x0 PUSH1 0x1 SLOAD PUSH0 SLOAD PUSH2 0xB0C JUMP JUMPDEST PUSH32 0x0 PUSH32 0x0 PUSH0 SLOAD PUSH1 0x1 SLOAD JUMPDEST SWAP4 POP SWAP4 POP SWAP4 POP SWAP4 POP DUP4 PUSH20 0xFFFFFFFFFFFFFFFFFFFFFFFFFFFFFFFFFFFFFFFF AND PUSH4 0x23B872DD CALLER ADDRESS DUP11 PUSH1 0x40 MLOAD DUP5 PUSH4 0xFFFFFFFF AND PUSH1 0xE0 SHL DUP2 MSTORE PUSH1 0x4 ADD PUSH2 0xB51 SWAP4 SWAP3 SWAP2 SWAP1 PUSH2 0x13C1 JUMP JUMPDEST PUSH1 0x20 PUSH1 0x40 MLOAD DUP1 DUP4 SUB DUP2 PUSH0 DUP8 GAS CALL ISZERO DUP1 ISZERO PUSH2 0xB6D JUMPI RETURNDATASIZE PUSH0 DUP1 RETURNDATACOPY RETURNDATASIZE PUSH0 REVERT JUMPDEST POP POP POP POP PUSH1 0x40 MLOAD RETURNDATASIZE PUSH1 0x1F NOT PUSH1 0x1F DUP3 ADD AND DUP3 ADD DUP1 PUSH1 0x40 MSTORE POP DUP2 ADD SWAP1 PUSH2 0xB91 SWAP2 SWAP1 PUSH2 0x1396 JUMP JUMPDEST POP PUSH0 PUSH2 0x3E8 PUSH2 0x3E5 DUP10 PUSH2 0xBA4 SWAP2 SWAP1 PUSH2 0x11F1 JUMP JUMPDEST PUSH2 0xBAE SWAP2 SWAP1 PUSH2 0x125F JUMP JUMPDEST SWAP1 POP DUP1 DUP4 PUSH2 0xBBC SWAP2 SWAP1 PUSH2 0x15BC JUMP JUMPDEST DUP2 DUP4 PUSH2 0xBC8 SWAP2 SWAP1 PUSH2 0x11F1 JUMP JUMPDEST PUSH2 0xBD2 SWAP2 SWAP1 PUSH2 0x125F JUMP JUMPDEST SWAP7 POP DUP4 PUSH20 0xFFFFFFFFFFFFFFFFFFFFFFFFFFFFFFFFFFFFFFFF AND PUSH4 0xA9059CBB CALLER DUP10 PUSH1 0x40 MLOAD DUP4 PUSH4 0xFFFFFFFF AND PUSH1 0xE0 SHL DUP2 MSTORE PUSH1 0x4 ADD PUSH2 0xC0F SWAP3 SWAP2 SWAP1 PUSH2 0x133A JUMP JUMPDEST PUSH1 0x20 PUSH1 0x40 MLOAD DUP1 DUP4 SUB DUP2 PUSH0 DUP8 GAS CALL ISZERO DUP1 ISZERO PUSH2 0xC2B JUMPI RETURNDATASIZE PUSH0 DUP1 RETURNDATACOPY RETURNDATASIZE PUSH0 REVERT JUMPDEST POP POP POP POP PUSH1 0x40 MLOAD RETURNDATASIZE PUSH1 0x1F NOT PUSH1 0x1F DUP3 ADD AND DUP3 ADD DUP1 PUSH1 0x40 MSTORE POP DUP2 ADD SWAP1 PUSH2 0xC4F SWAP2 SWAP1 PUSH2 0x1396 JUMP JUMPDEST POP PUSH2 0xD88 PUSH32 0x0 PUSH20 0xFFFFFFFFFFFFFFFFFFFFFFFFFFFFFFFFFFFFFFFF AND PUSH4 0x70A08231 ADDRESS PUSH1 0x40 MLOAD DUP3 PUSH4 0xFFFFFFFF AND PUSH1 0xE0 SHL DUP2 MSTORE PUSH1 0x4 ADD PUSH2 0xCAC SWAP2 SWAP1 PUSH2 0x116C JUMP JUMPDEST PUSH1 0x20 PUSH1 0x40 MLOAD DUP1 DUP4 SUB DUP2 DUP7 GAS STATICCALL ISZERO DUP1 ISZERO PUSH2 0xCC7 JUMPI RETURNDATASIZE PUSH0 DUP1 RETURNDATACOPY RETURNDATASIZE PUSH0 REVERT JUMPDEST POP POP POP POP PUSH1 0x40 MLOAD RETURNDATASIZE PUSH1 0x1F NOT PUSH1 0x1F DUP3 ADD AND DUP3 ADD DUP1 PUSH1 0x40 MSTORE POP DUP2 ADD SWAP1 PUSH2 0xCEB SWAP2 SWAP1 PUSH2 0x1199 JUMP JUMPDEST PUSH32 0x0 PUSH20 0xFFFFFFFFFFFFFFFFFFFFFFFFFFFFFFFFFFFFFFFF AND PUSH4 0x70A08231 ADDRESS PUSH1 0x40 MLOAD DUP3 PUSH4 0xFFFFFFFF AND PUSH1 0xE0 SHL DUP2 MSTORE PUSH1 0x4 ADD PUSH2 0xD44 SWAP2 SWAP1 PUSH2 0x116C JUMP JUMPDEST PUSH1 0x20 PUSH1 0x40 MLOAD DUP1 DUP4 SUB DUP2 DUP7 GAS STATICCALL ISZERO DUP1 ISZERO PUSH2 0xD5F JUMPI RETURNDATASIZE PUSH0 DUP1 RETURNDATACOPY RETURNDATASIZE PUSH0 REVERT JUMPDEST POP POP POP POP PUSH1 0x40 MLOAD RETURNDATASIZE PUSH1 0x1F NOT PUSH1 0x1F DUP3 ADD AND DUP3 ADD DUP1 PUSH1 0x40 MSTORE POP DUP2 ADD SWAP1 PUSH2 0xD83 SWAP2 SWAP1 PUSH2 0x1199 JUMP JUMPDEST PUSH2 0xE27 JUMP JUMPDEST POP POP POP POP POP POP SWAP3 SWAP2 POP POP JUMP JUMPDEST PUSH32 0x0 DUP2 JUMP JUMPDEST DUP1 PUSH1 0x3 PUSH0 DUP5 PUSH20 0xFFFFFFFFFFFFFFFFFFFFFFFFFFFFFFFFFFFFFFFF AND PUSH20 0xFFFFFFFFFFFFFFFFFFFFFFFFFFFFFFFFFFFFFFFF AND DUP2 MSTORE PUSH1 0x20 ADD SWAP1 DUP2 MSTORE PUSH1 0x20 ADD PUSH0 KECCAK256 PUSH0 DUP3 DUP3 SLOAD PUSH2 0xE04 SWAP2 SWAP1 PUSH2 0x1307 JUMP JUMPDEST SWAP3 POP POP DUP2 SWAP1 SSTORE POP DUP1 PUSH1 0x2 PUSH0 DUP3 DUP3 SLOAD PUSH2 0xE1C SWAP2 SWAP1 PUSH2 0x1307 JUMP JUMPDEST SWAP3 POP POP DUP2 SWAP1 SSTORE POP POP POP JUMP JUMPDEST DUP2 PUSH0 DUP2 SWAP1 SSTORE POP DUP1 PUSH1 0x1 DUP2 SWAP1 SSTORE POP POP POP JUMP JUMPDEST PUSH0 PUSH1 0x3 DUP3 GT ISZERO PUSH2 0xE9D JUMPI DUP2 SWAP1 POP PUSH0 PUSH1 0x1 PUSH1 0x2 DUP5 PUSH2 0xE55 SWAP2 SWAP1 PUSH2 0x125F JUMP JUMPDEST PUSH2 0xE5F SWAP2 SWAP1 PUSH2 0x15BC JUMP JUMPDEST SWAP1 POP JUMPDEST DUP2 DUP2 LT ISZERO PUSH2 0xE97 JUMPI DUP1 SWAP2 POP PUSH1 0x2 DUP2 DUP3 DUP6 PUSH2 0xE7C SWAP2 SWAP1 PUSH2 0x125F JUMP JUMPDEST PUSH2 0xE86 SWAP2 SWAP1 PUSH2 0x15BC JUMP JUMPDEST PUSH2 0xE90 SWAP2 SWAP1 PUSH2 0x125F JUMP JUMPDEST SWAP1 POP PUSH2 0xE62 JUMP JUMPDEST POP PUSH2 0xEAA JUMP JUMPDEST PUSH0 DUP3 EQ PUSH2 0xEA9 JUMPI PUSH1 0x1 SWAP1 POP JUMPDEST JUMPDEST SWAP2 SWAP1 POP JUMP JUMPDEST PUSH0 DUP2 DUP4 GT ISZERO PUSH2 0xEBE JUMPI DUP2 PUSH2 0xEC0 JUMP JUMPDEST DUP3 JUMPDEST SWAP1 POP SWAP3 SWAP2 POP POP JUMP JUMPDEST DUP1 PUSH1 0x3 PUSH0 DUP5 PUSH20 0xFFFFFFFFFFFFFFFFFFFFFFFFFFFFFFFFFFFFFFFF AND PUSH20 0xFFFFFFFFFFFFFFFFFFFFFFFFFFFFFFFFFFFFFFFF AND DUP2 MSTORE PUSH1 0x20 ADD SWAP1 DUP2 MSTORE PUSH1 0x20 ADD PUSH0 KECCAK256 PUSH0 DUP3 DUP3 SLOAD PUSH2 0xF14 SWAP2 SWAP1 PUSH2 0x15BC JUMP JUMPDEST SWAP3 POP POP DUP2 SWAP1 SSTORE POP DUP1 PUSH1 0x2 PUSH0 DUP3 DUP3 SLOAD PUSH2 0xF2C SWAP2 SWAP1 PUSH2 0x15BC JUMP JUMPDEST SWAP3 POP POP DUP2 SWAP1 SSTORE POP POP POP JUMP JUMPDEST PUSH0 PUSH20 0xFFFFFFFFFFFFFFFFFFFFFFFFFFFFFFFFFFFFFFFF DUP3 AND SWAP1 POP SWAP2 SWAP1 POP JUMP JUMPDEST PUSH0 DUP2 SWAP1 POP SWAP2 SWAP1 POP JUMP JUMPDEST PUSH0 PUSH2 0xF79 PUSH2 0xF74 PUSH2 0xF6F DUP5 PUSH2 0xF37 JUMP JUMPDEST PUSH2 0xF56 JUMP JUMPDEST PUSH2 0xF37 JUMP JUMPDEST SWAP1 POP SWAP2 SWAP1 POP JUMP JUMPDEST PUSH0 PUSH2 0xF8A DUP3 PUSH2 0xF5F JUMP JUMPDEST SWAP1 POP SWAP2 SWAP1 POP JUMP JUMPDEST PUSH0 PUSH2 0xF9B DUP3 PUSH2 0xF80 JUMP JUMPDEST SWAP1 POP SWAP2 SWAP1 POP JUMP JUMPDEST PUSH2 0xFAB DUP2 PUSH2 0xF91 JUMP JUMPDEST DUP3 MSTORE POP POP JUMP JUMPDEST PUSH0 PUSH1 0x20 DUP3 ADD SWAP1 POP PUSH2 0xFC4 PUSH0 DUP4 ADD DUP5 PUSH2 0xFA2 JUMP JUMPDEST SWAP3 SWAP2 POP POP JUMP JUMPDEST PUSH0 DUP2 SWAP1 POP SWAP2 SWAP1 POP JUMP JUMPDEST PUSH2 0xFDC DUP2 PUSH2 0xFCA JUMP JUMPDEST DUP3 MSTORE POP POP JUMP JUMPDEST PUSH0 PUSH1 0x20 DUP3 ADD SWAP1 POP PUSH2 0xFF5 PUSH0 DUP4 ADD DUP5 PUSH2 0xFD3 JUMP JUMPDEST SWAP3 SWAP2 POP POP JUMP JUMPDEST PUSH0 DUP1 REVERT JUMPDEST PUSH0 PUSH2 0x1009 DUP3 PUSH2 0xF37 JUMP JUMPDEST SWAP1 POP SWAP2 SWAP1 POP JUMP JUMPDEST PUSH2 0x1019 DUP2 PUSH2 0xFFF JUMP JUMPDEST DUP2 EQ PUSH2 0x1023 JUMPI PUSH0 DUP1 REVERT JUMPDEST POP JUMP JUMPDEST PUSH0 DUP2 CALLDATALOAD SWAP1 POP PUSH2 0x1034 DUP2 PUSH2 0x1010 JUMP JUMPDEST SWAP3 SWAP2 POP POP JUMP JUMPDEST PUSH0 PUSH1 0x20 DUP3 DUP5 SUB SLT ISZERO PUSH2 0x104F JUMPI PUSH2 0x104E PUSH2 0xFFB JUMP JUMPDEST JUMPDEST PUSH0 PUSH2 0x105C DUP5 DUP3 DUP6 ADD PUSH2 0x1026 JUMP JUMPDEST SWAP2 POP POP SWAP3 SWAP2 POP POP JUMP JUMPDEST PUSH2 0x106E DUP2 PUSH2 0xFCA JUMP JUMPDEST DUP2 EQ PUSH2 0x1078 JUMPI PUSH0 DUP1 REVERT JUMPDEST POP JUMP JUMPDEST PUSH0 DUP2 CALLDATALOAD SWAP1 POP PUSH2 0x1089 DUP2 PUSH2 0x1065 JUMP JUMPDEST SWAP3 SWAP2 POP POP JUMP JUMPDEST PUSH0 PUSH1 0x20 DUP3 DUP5 SUB SLT ISZERO PUSH2 0x10A4 JUMPI PUSH2 0x10A3 PUSH2 0xFFB JUMP JUMPDEST JUMPDEST PUSH0 PUSH2 0x10B1 DUP5 DUP3 DUP6 ADD PUSH2 0x107B JUMP JUMPDEST SWAP2 POP POP SWAP3 SWAP2 POP POP JUMP JUMPDEST PUSH0 PUSH1 0x40 DUP3 ADD SWAP1 POP PUSH2 0x10CD PUSH0 DUP4 ADD DUP6 PUSH2 0xFD3 JUMP JUMPDEST PUSH2 0x10DA PUSH1 0x20 DUP4 ADD DUP5 PUSH2 0xFD3 JUMP JUMPDEST SWAP4 SWAP3 POP POP POP JUMP JUMPDEST PUSH0 DUP1 PUSH1 0x40 DUP4 DUP6 SUB SLT ISZERO PUSH2 0x10F7 JUMPI PUSH2 0x10F6 PUSH2 0xFFB JUMP JUMPDEST JUMPDEST PUSH0 PUSH2 0x1104 DUP6 DUP3 DUP7 ADD PUSH2 0x107B JUMP JUMPDEST SWAP3 POP POP PUSH1 0x20 PUSH2 0x1115 DUP6 DUP3 DUP7 ADD PUSH2 0x107B JUMP JUMPDEST SWAP2 POP POP SWAP3 POP SWAP3 SWAP1 POP JUMP JUMPDEST PUSH0 DUP1 PUSH1 0x40 DUP4 DUP6 SUB SLT ISZERO PUSH2 0x1135 JUMPI PUSH2 0x1134 PUSH2 0xFFB JUMP JUMPDEST JUMPDEST PUSH0 PUSH2 0x1142 DUP6 DUP3 DUP7 ADD PUSH2 0x1026 JUMP JUMPDEST SWAP3 POP POP PUSH1 0x20 PUSH2 0x1153 DUP6 DUP3 DUP7 ADD PUSH2 0x107B JUMP JUMPDEST SWAP2 POP POP SWAP3 POP SWAP3 SWAP1 POP JUMP JUMPDEST PUSH2 0x1166 DUP2 PUSH2 0xFFF JUMP JUMPDEST DUP3 MSTORE POP POP JUMP JUMPDEST PUSH0 PUSH1 0x20 DUP3 ADD SWAP1 POP PUSH2 0x117F PUSH0 DUP4 ADD DUP5 PUSH2 0x115D JUMP JUMPDEST SWAP3 SWAP2 POP POP JUMP JUMPDEST PUSH0 DUP2 MLOAD SWAP1 POP PUSH2 0x1193 DUP2 PUSH2 0x1065 JUMP JUMPDEST SWAP3 SWAP2 POP POP JUMP JUMPDEST PUSH0 PUSH1 0x20 DUP3 DUP5 SUB SLT ISZERO PUSH2 0x11AE JUMPI PUSH2 0x11AD PUSH2 0xFFB JUMP JUMPDEST JUMPDEST PUSH0 PUSH2 0x11BB DUP5 DUP3 DUP6 ADD PUSH2 0x1185 JUMP JUMPDEST SWAP2 POP POP SWAP3 SWAP2 POP POP JUMP JUMPDEST PUSH32 0x4E487B7100000000000000000000000000000000000000000000000000000000 PUSH0 MSTORE PUSH1 0x11 PUSH1 0x4 MSTORE PUSH1 0x24 PUSH0 REVERT JUMPDEST PUSH0 PUSH2 0x11FB DUP3 PUSH2 0xFCA JUMP JUMPDEST SWAP2 POP PUSH2 0x1206 DUP4 PUSH2 0xFCA JUMP JUMPDEST SWAP3 POP DUP3 DUP3 MUL PUSH2 0x1214 DUP2 PUSH2 0xFCA JUMP JUMPDEST SWAP2 POP DUP3 DUP3 DIV DUP5 EQ DUP4 ISZERO OR PUSH2 0x122B JUMPI PUSH2 0x122A PUSH2 0x11C4 JUMP JUMPDEST JUMPDEST POP SWAP3 SWAP2 POP POP JUMP JUMPDEST PUSH32 0x4E487B7100000000000000000000000000000000000000000000000000000000 PUSH0 MSTORE PUSH1 0x12 PUSH1 0x4 MSTORE PUSH1 0x24 PUSH0 REVERT JUMPDEST PUSH0 PUSH2 0x1269 DUP3 PUSH2 0xFCA JUMP JUMPDEST SWAP2 POP PUSH2 0x1274 DUP4 PUSH2 0xFCA JUMP JUMPDEST SWAP3 POP DUP3 PUSH2 0x1284 JUMPI PUSH2 0x1283 PUSH2 0x1232 JUMP JUMPDEST JUMPDEST DUP3 DUP3 DIV SWAP1 POP SWAP3 SWAP2 POP POP JUMP JUMPDEST PUSH0 DUP3 DUP3 MSTORE PUSH1 0x20 DUP3 ADD SWAP1 POP SWAP3 SWAP2 POP POP JUMP JUMPDEST PUSH32 0x616D6F756E7430206F7220616D6F756E7431203D203000000000000000000000 PUSH0 DUP3 ADD MSTORE POP JUMP JUMPDEST PUSH0 PUSH2 0x12D3 PUSH1 0x16 DUP4 PUSH2 0x128F JUMP JUMPDEST SWAP2 POP PUSH2 0x12DE DUP3 PUSH2 0x129F JUMP JUMPDEST PUSH1 0x20 DUP3 ADD SWAP1 POP SWAP2 SWAP1 POP JUMP JUMPDEST PUSH0 PUSH1 0x20 DUP3 ADD SWAP1 POP DUP2 DUP2 SUB PUSH0 DUP4 ADD MSTORE PUSH2 0x1300 DUP2 PUSH2 0x12C7 JUMP JUMPDEST SWAP1 POP SWAP2 SWAP1 POP JUMP JUMPDEST PUSH0 PUSH2 0x1311 DUP3 PUSH2 0xFCA JUMP JUMPDEST SWAP2 POP PUSH2 0x131C DUP4 PUSH2 0xFCA JUMP JUMPDEST SWAP3 POP DUP3 DUP3 SUB SWAP1 POP DUP2 DUP2 GT ISZERO PUSH2 0x1334 JUMPI PUSH2 0x1333 PUSH2 0x11C4 JUMP JUMPDEST JUMPDEST SWAP3 SWAP2 POP POP JUMP JUMPDEST PUSH0 PUSH1 0x40 DUP3 ADD SWAP1 POP PUSH2 0x134D PUSH0 DUP4 ADD DUP6 PUSH2 0x115D JUMP JUMPDEST PUSH2 0x135A PUSH1 0x20 DUP4 ADD DUP5 PUSH2 0xFD3 JUMP JUMPDEST SWAP4 SWAP3 POP POP POP JUMP JUMPDEST PUSH0 DUP2 ISZERO ISZERO SWAP1 POP SWAP2 SWAP1 POP JUMP JUMPDEST PUSH2 0x1375 DUP2 PUSH2 0x1361 JUMP JUMPDEST DUP2 EQ PUSH2 0x137F JUMPI PUSH0 DUP1 REVERT JUMPDEST POP JUMP JUMPDEST PUSH0 DUP2 MLOAD SWAP1 POP PUSH2 0x1390 DUP2 PUSH2 0x136C JUMP JUMPDEST SWAP3 SWAP2 POP POP JUMP JUMPDEST PUSH0 PUSH1 0x20 DUP3 DUP5 SUB SLT ISZERO PUSH2 0x13AB JUMPI PUSH2 0x13AA PUSH2 0xFFB JUMP JUMPDEST JUMPDEST PUSH0 PUSH2 0x13B8 DUP5 DUP3 DUP6 ADD PUSH2 0x1382 JUMP JUMPDEST SWAP2 POP POP SWAP3 SWAP2 POP POP JUMP JUMPDEST PUSH0 PUSH1 0x60 DUP3 ADD SWAP1 POP PUSH2 0x13D4 PUSH0 DUP4 ADD DUP7 PUSH2 0x115D JUMP JUMPDEST PUSH2 0x13E1 PUSH1 0x20 DUP4 ADD DUP6 PUSH2 0x115D JUMP JUMPDEST PUSH2 0x13EE PUSH1 0x40 DUP4 ADD DUP5 PUSH2 0xFD3 JUMP JUMPDEST SWAP5 SWAP4 POP POP POP POP JUMP JUMPDEST PUSH32 0x78202F207920213D206478202F2064793B2077652063616E206E6F7420636861 PUSH0 DUP3 ADD MSTORE PUSH32 0x6E67652076616C7565206F6620636F6E7374616E740000000000000000000000 PUSH1 0x20 DUP3 ADD MSTORE POP JUMP JUMPDEST PUSH0 PUSH2 0x1450 PUSH1 0x35 DUP4 PUSH2 0x128F JUMP JUMPDEST SWAP2 POP PUSH2 0x145B DUP3 PUSH2 0x13F6 JUMP JUMPDEST PUSH1 0x40 DUP3 ADD SWAP1 POP SWAP2 SWAP1 POP JUMP JUMPDEST PUSH0 PUSH1 0x20 DUP3 ADD SWAP1 POP DUP2 DUP2 SUB PUSH0 DUP4 ADD MSTORE PUSH2 0x147D DUP2 PUSH2 0x1444 JUMP JUMPDEST SWAP1 POP SWAP2 SWAP1 POP JUMP JUMPDEST PUSH32 0x736861726573203D203000000000000000000000000000000000000000000000 PUSH0 DUP3 ADD MSTORE POP JUMP JUMPDEST PUSH0 PUSH2 0x14B8 PUSH1 0xA DUP4 PUSH2 0x128F JUMP JUMPDEST SWAP2 POP PUSH2 0x14C3 DUP3 PUSH2 0x1484 JUMP JUMPDEST PUSH1 0x20 DUP3 ADD SWAP1 POP SWAP2 SWAP1 POP JUMP JUMPDEST PUSH0 PUSH1 0x20 DUP3 ADD SWAP1 POP DUP2 DUP2 SUB PUSH0 DUP4 ADD MSTORE PUSH2 0x14E5 DUP2 PUSH2 0x14AC JUMP JUMPDEST SWAP1 POP SWAP2 SWAP1 POP JUMP JUMPDEST PUSH32 0x696E76616C696420746F6B656E00000000000000000000000000000000000000 PUSH0 DUP3 ADD MSTORE POP JUMP JUMPDEST PUSH0 PUSH2 0x1520 PUSH1 0xD DUP4 PUSH2 0x128F JUMP JUMPDEST SWAP2 POP PUSH2 0x152B DUP3 PUSH2 0x14EC JUMP JUMPDEST PUSH1 0x20 DUP3 ADD SWAP1 POP SWAP2 SWAP1 POP JUMP JUMPDEST PUSH0 PUSH1 0x20 DUP3 ADD SWAP1 POP DUP2 DUP2 SUB PUSH0 DUP4 ADD MSTORE PUSH2 0x154D DUP2 PUSH2 0x1514 JUMP JUMPDEST SWAP1 POP SWAP2 SWAP1 POP JUMP JUMPDEST PUSH32 0x616D6F756E7420696E203D203000000000000000000000000000000000000000 PUSH0 DUP3 ADD MSTORE POP JUMP JUMPDEST PUSH0 PUSH2 0x1588 PUSH1 0xD DUP4 PUSH2 0x128F JUMP JUMPDEST SWAP2 POP PUSH2 0x1593 DUP3 PUSH2 0x1554 JUMP JUMPDEST PUSH1 0x20 DUP3 ADD SWAP1 POP SWAP2 SWAP1 POP JUMP JUMPDEST PUSH0 PUSH1 0x20 DUP3 ADD SWAP1 POP DUP2 DUP2 SUB PUSH0 DUP4 ADD MSTORE PUSH2 0x15B5 DUP2 PUSH2 0x157C JUMP JUMPDEST SWAP1 POP SWAP2 SWAP1 POP JUMP JUMPDEST PUSH0 PUSH2 0x15C6 DUP3 PUSH2 0xFCA JUMP JUMPDEST SWAP2 POP PUSH2 0x15D1 DUP4 PUSH2 0xFCA JUMP JUMPDEST SWAP3 POP DUP3 DUP3 ADD SWAP1 POP DUP1 DUP3 GT ISZERO PUSH2 0x15E9 JUMPI PUSH2 0x15E8 PUSH2 0x11C4 JUMP JUMPDEST JUMPDEST SWAP3 SWAP2 POP POP JUMP INVALID LOG2 PUSH5 0x6970667358 0x22 SLT KECCAK256 TIMESTAMP 0x2F 0xF7 SIGNEXTEND 0x2C JUMP 0xB3 PC 0xAB 0xAA BYTE OR PUSH19 0xB9ED71B97B2C36999664C58DC99733B91C6C2 PUSH5 0x736F6C6343 STOP ADDMOD EQ STOP CALLER "
		},
		"gasEstimates": {
			"creation": {
				"codeDepositCost": "1133800",
				"executionCost": "infinite",
				"totalCost": "infinite"
			},
			"external": {
				"addLiquidity(uint256,uint256)": "infinite",
				"balanceOf(address)": "2802",
				"removeLiquidity(uint256)": "infinite",
				"reserve0()": "2469",
				"reserve1()": "2492",
				"swap(address,uint256)": "infinite",
				"token0()": "infinite",
				"token1()": "infinite",
				"totalSupply()": "2448"
			},
			"internal": {
				"_burn(address,uint256)": "infinite",
				"_min(uint256,uint256)": "66",
				"_mint(address,uint256)": "infinite",
				"_sqrt(uint256)": "infinite",
				"_update(uint256,uint256)": "44240"
			}
		},
		"methodIdentifiers": {
			"addLiquidity(uint256,uint256)": "9cd441da",
			"balanceOf(address)": "70a08231",
			"removeLiquidity(uint256)": "9c8f9f23",
			"reserve0()": "443cb4bc",
			"reserve1()": "5a76f25e",
			"swap(address,uint256)": "d004f0f7",
			"token0()": "0dfe1681",
			"token1()": "d21220a7",
			"totalSupply()": "18160ddd"
		}
	},
	"abi": [
		{
			"inputs": [
				{
					"internalType": "address",
					"name": "_token0",
					"type": "address"
				},
				{
					"internalType": "address",
					"name": "_token1",
					"type": "address"
				}
			],
			"stateMutability": "nonpayable",
			"type": "constructor"
		},
		{
			"inputs": [
				{
					"internalType": "uint256",
					"name": "_amount0",
					"type": "uint256"
				},
				{
					"internalType": "uint256",
					"name": "_amount1",
					"type": "uint256"
				}
			],
			"name": "addLiquidity",
			"outputs": [
				{
					"internalType": "uint256",
					"name": "shares",
					"type": "uint256"
				}
			],
			"stateMutability": "nonpayable",
			"type": "function"
		},
		{
			"inputs": [
				{
					"internalType": "address",
					"name": "",
					"type": "address"
				}
			],
			"name": "balanceOf",
			"outputs": [
				{
					"internalType": "uint256",
					"name": "",
					"type": "uint256"
				}
			],
			"stateMutability": "view",
			"type": "function"
		},
		{
			"inputs": [
				{
					"internalType": "uint256",
					"name": "_shares",
					"type": "uint256"
				}
			],
			"name": "removeLiquidity",
			"outputs": [
				{
					"internalType": "uint256",
					"name": "amount0",
					"type": "uint256"
				},
				{
					"internalType": "uint256",
					"name": "amount1",
					"type": "uint256"
				}
			],
			"stateMutability": "nonpayable",
			"type": "function"
		},
		{
			"inputs": [],
			"name": "reserve0",
			"outputs": [
				{
					"internalType": "uint256",
					"name": "",
					"type": "uint256"
				}
			],
			"stateMutability": "view",
			"type": "function"
		},
		{
			"inputs": [],
			"name": "reserve1",
			"outputs": [
				{
					"internalType": "uint256",
					"name": "",
					"type": "uint256"
				}
			],
			"stateMutability": "view",
			"type": "function"
		},
		{
			"inputs": [
				{
					"internalType": "address",
					"name": "_tokenIn",
					"type": "address"
				},
				{
					"internalType": "uint256",
					"name": "_amountIn",
					"type": "uint256"
				}
			],
			"name": "swap",
			"outputs": [
				{
					"internalType": "uint256",
					"name": "amountOut",
					"type": "uint256"
				}
			],
			"stateMutability": "nonpayable",
			"type": "function"
		},
		{
			"inputs": [],
			"name": "token0",
			"outputs": [
				{
					"internalType": "contract IERC20",
					"name": "",
					"type": "address"
				}
			],
			"stateMutability": "view",
			"type": "function"
		},
		{
			"inputs": [],
			"name": "token1",
			"outputs": [
				{
					"internalType": "contract IERC20",
					"name": "",
					"type": "address"
				}
			],
			"stateMutability": "view",
			"type": "function"
		},
		{
			"inputs": [],
			"name": "totalSupply",
			"outputs": [
				{
					"internalType": "uint256",
					"name": "",
					"type": "uint256"
				}
			],
			"stateMutability": "view",
			"type": "function"
		}
	]
}